:1000000019C1000048C1000046C1000044C1000001
:1000100042C1000040C100003EC100003CC10000E0
:100020003AC1000038C1000036C1000034C10000F0
:1000300032C1000030C100002EC100002CC1000000
:100040002AC1000028C1000026C1000024C1000010
:1000500022C1000020C100001EC100000C949309C1
:100060001AC100000C94D50C0C940B0D14C10000A7
:1000700012C1000010C100000EC100000CC1000040
:100080000AC1000008C1000006C1000004C1000050
:1000900002C1000000C10000FEC00000FCC0000062
:1000A000FAC00000F8C00000F6C00000F4C0000074
:1000B000F2C00000F0C00000EEC00000ECC0000084
:1000C000EAC00000E8C00000E6C00000E4C0000094
:1000D000E2C00000E0C00000DEC00000DCC00000A4
:1000E000DAC00000BD0AC00AAF0AB30AB90AF70AAB
:1000F000C40AC80ACE0AD20AD60ADC0AE00AE40A0E
:10010000F70AEA0AEE0AF20A05A84CCDB2D44EB9B3
:100110003836A9020C50B9918688083CA6AAAA2AAA
:10012000BE000000803F00000A0B02090C0D0E0803
:1001300007030401000000000000000000000000B0
:1001400000000000000000000000000000000000AF
:10015000000012111000000000000000000000006C
:10016000000000000000000000000000010210205C
:1001700020080810204010204080020102010804DD
:100180000201010204081020408080402010080471
:1001900002018004020180402010080402010804CA
:1001A000020101020408102040800102040810200E
:1001B0004080050505050705080808080202020237
:1001C0000A0A0808040404040101010101010101F3
:1001D0000303030303030303040707070C0C0C0CBE
:1001E0000C0C0C0C020202020606060606060606A7
:1001F0000B0B0B0B0B0B0B0B000022002500280038
:100200002B002E003100340002010000050108011E
:100210000B0100002100240027002A002D003000DF
:10022000330001010000040107010A010406BF07B1
:100230003D0D0D0611241FBECFEFD1E2DEBFCDBFB5
:1002400000E00CBF12E0A0E0B2E0E0E3F7E200E083
:100250000BBF02C007900D92A83DB107D9F724E06B
:10026000A8EDB2E001C01D92A933B207E1F712E098
:10027000C2E3D2E000E006C022970109FE010BBFF5
:100280000E945911CC32D10780E00807A9F70E94DB
:10029000810D0C948713B4CEFC0185859685089555
:1002A000CF93DF9300D000D0CDB7DEB7AB011C8277
:1002B0001D821E82DC01ED91FC910190F081E02D08
:1002C00019821A821B829E012F5F3F4FBE016C5F15
:1002D0007F4F199526960FB6F894DEBF0FBECDBF9F
:1002E000DF91CF91089580E991E008953C9A0895B7
:1002F0000F931F93CF93DF9340ED57E060E070E0E2
:1003000088E593E07ED720E032EC41E050E068E9F8
:1003100073E088E593E087D788E593E070D76CE4D5
:1003200072E08091890390918A030E94CB0D6AE06C
:1003300070E080E090E00E940C0A41E060E088E517
:1003400093E0D6D708E113E0C0E0D0E0219642E088
:1003500050E0BE018CE393E0EDD682E090E0F8013E
:10036000819391938F01CF30D10581F78091EB027A
:10037000811145C01092DD021092DC028FEF809354
:10038000E0028093E1028093E2028093E302809393
:10039000E4028093E50281E08093E6021092E80295
:1003A0001092E7021092DF021092DE028091490360
:1003B00090914A03892B31F48AED92E090934A039D
:1003C00080934903E0914703F0914803309721F06F
:1003D0008AED92E0958384838AED92E090934803BE
:1003E000809347031092EA021092E90282E692E0BB
:1003F0009093DB028093DA0281E08093EB0220E0AD
:1004000030E04CE050E063EF72E08AED92E0DF9183
:10041000CF911F910F9179C52F923F924F925F928A
:100420006F927F928F929F92AF92BF92CF92DF9204
:10043000EF92FF920F931F93CF93DF9300D01F9201
:10044000CDB7DEB7BAD75B018091D9028E5F8093BA
:10045000D90223EFE22E22E0F22EC12CD12C00E0B3
:1004600010E02090D902312C4801820C931C2DE021
:10047000289DC001299D900D11248A9DB0018B9D5E
:10048000700D9A9D700D1124882777FD8095982F07
:100490000E94350F27E137EB41ED58E30E94E90F49
:1004A0000E944C102B013C0120E030E0A9010E9489
:1004B000E50F18163CF420E030E04FE753E4C301A9
:1004C000B20107C0C301B201905820E030E04FE70D
:1004D00053E40E94E90F0E94070F6C8329E3289DD3
:1004E000C001299D900D11248A9DB0018B9D700D36
:1004F0009A9D700D1124882777FD8095982F0E9472
:10050000350F27E137EB41ED58E30E94E90F0E94D8
:100510004C102B013C01C6016CE070E00E94F2100F
:10052000CB01820D931D6FEF70E00E94F210898362
:1005300020E030E04FE753E4C301B2010E94E90F2D
:100540000E94070F6A838C818B83B701CE010196CD
:100550002DD50F5F1F4F2FEFC20ED11C83E0E80E89
:10056000F11C0C30110509F07CCF60914B038BE43A
:1005700093E0F7D36AE070E080E090E04DD70F9011
:100580000F900F900F90DF91CF911F910F91FF90DF
:10059000EF90DF90CF90BF90AF909F908F907F9023
:1005A0006F905F904F903F902F9008959F92AF92E1
:1005B000BF92CF92DF92EF92FF920F931F93CF9350
:1005C000DF93EC01E881F98198B1906188B18F7E69
:1005D00088B95A852F81D52ED21ADF82AF84AA819D
:1005E000BB812D853C854E852F5F3F5F4F5FEE8041
:1005F000F8849984CB851181C12C0C2D6C2D7C2D18
:1006000071811127889471117D0D08F47FEFD194C9
:10061000889420FD170F1795889421FD170F1795C3
:10062000889422FD170F1795889423FD170F1795AF
:10063000889424FD170F1795889425FD170F17959B
:10064000889426FD170F1795889427FD170F179587
:100650008894072F2111012FD50E102F002C98B947
:1006600000C017FF88B970810027889400C000C0BF
:10067000002C88B971117E0D00C0002C98B900C003
:1006800016FF88B908F47FEFE194889400C000C099
:10069000002C88B930FD070F00C0002C98B900C0AD
:1006A00015FF88B90795889431FD070F00C000C079
:1006B000002C88B90795889400C0002C98B900C018
:1006C00014FF88B932FD070F0795889400C000C059
:1006D000002C88B933FD070F00C0002C98B900C06A
:1006E00013FF88B90795889434FD070F00C000C038
:1006F000002C88B90795889400C0002C98B900C0D8
:1007000012FF88B935FD070F0795889400C000C017
:10071000002C88B936FD070F00C0002C98B900C026
:1007200011FF88B90795889437FD070F00C000C0F6
:10073000002C88B90795889400C0002C98B900C097
:1007400010FF88B9172F3111102FE90C00C000C01D
:10075000002C88B900C000C0002C98B900C017FF59
:1007600088B972810027889400C000C0002C88B925
:1007700071117F0D00C0002C98B900C016FF88B918
:1007800008F47FEFEA0DF11D00C000C0002C88B90D
:1007900040FD070F00C0002C98B900C015FF88B9B4
:1007A0000795889441FD070F00C000C0002C88B950
:1007B0000795889400C0002C98B900C014FF88B930
:1007C00042FD070F0795889400C000C0002C88B92F
:1007D00043FD070F00C0002C98B900C013FF88B973
:1007E0000795889444FD070F00C000C0002C88B90D
:1007F0000795889400C0002C98B900C012FF88B9F2
:1008000045FD070F0795889400C000C0002C88B9EB
:1008100046FD070F00C0002C98B900C011FF88B931
:100820000795889447FD070F00C000C0002C88B9C9
:100830000795889400C0002C98B900C010FF88B9B3
:10084000172F4111102FF19400C000C0002C88B95F
:10085000FC0E00C000C098B900C017FF88B97181B4
:100860000027889400C000C0002C88B971117D0D4C
:1008700000C0002C98B900C016FF88B908F47FEFBB
:10088000D194889400C000C0002C88B920FD070FC7
:1008900000C0002C98B900C015FF88B9079588944E
:1008A00021FD070F00C000C0002C88B9079588946F
:1008B00000C0002C98B900C014FF88B922FD070FB2
:1008C0000795889400C000C0002C88B923FD070F4D
:1008D00000C0002C98B900C013FF88B90795889410
:1008E00024FD070F00C000C0002C88B9079588942C
:1008F00000C0002C98B900C012FF88B925FD070F71
:100900000795889400C000C0002C88B926FD070F09
:1009100000C0002C98B900C011FF88B907958894D1
:1009200027FD070F00C000C0002C88B907958894E8
:1009300000C0002C98B900C010FF88B9172F2111F2
:10094000102FD50E00C000C0002C88B9119709F0F7
:1009500086CEDF91CF911F910F91FF90EF90DF90A6
:10096000CF90BF90AF909F9008950F931F93CF9318
:10097000DF93EC018B012DD52F853889621B730B1A
:100980006A307105C0F3F894C80110DEF8014281A5
:10099000538120EE31E0DA010E944911E4E096959E
:1009A000879577956795EA95D1F720E030E0EAE9F9
:1009B0004E9F212D5E9F200D311D1124620F731F4C
:1009C000811D911D693EF3E07F0781059105A8F126
:1009D000DC01CB01885E9340A109B10932E0B695F4
:1009E000A795979587953A95D1F740E050E027E095
:1009F000829F412D929F400D511D1124209117037C
:100A000030E0280F391F240F351F809190039091FB
:100A10009103A0919203B0919303432F5527840F24
:100A2000951FA11DB11D8093900390939103A093F6
:100A30009203B0939303209317037894CAD4788BCE
:100A40006F87DF91CF911F910F910895FC01118A5B
:100A5000108A0895FF920F931F93CF93DF93EC01B9
:100A60008091D8028F5F982F97709093D80280FD65
:100A700002C080E001C080E891FD8064947009F0BC
:100A80008062F0E1FF2EF80E20E030E000E011E09F
:100A9000FE01E20FF31F6485662331F070E0C801A8
:100AA0000E94F2106F5F01C060E061874F2D469F8A
:100AB000040E40E0411D1124411102C0168202C003
:100AC00041504683662311F0615061872F5F3F4F8D
:100AD00023303105E9F6DF91CF911F910F91FF90FF
:100AE0000895EF92FF920F931F93CF93DF93CDB7AB
:100AF000DEB762970FB6F894DEBF0FBECDBF8C0194
:100B00007A01F901DC011C968C917A8369835C83FC
:100B10004B835E834D8390819D8791819E879281D7
:100B20009F87813021F4CE01019694DF06C01C8698
:100B30001B861A86198618861F82188AB701CE016D
:100B4000019684DFD801ED91FC910484F585E02DB8
:100B5000BE016F5F7F4FC801199562960FB6F8947A
:100B6000DEBF0FBECDBFDF91CF911F910F91FF90E0
:100B7000EF900895EF92FF920F931F93CF93DF931F
:100B8000CDB7DEB762970FB6F894DEBF0FBECDBF0C
:100B90008C017A01F901DC011C968C917A836983BE
:100BA0005C834B835E834D8390819D8791819E877B
:100BB00092819F87813021F4CE0101964BDF06C0E0
:100BC0001C861B861A86198618861F8283E0888BEE
:100BD000B701CE0101963ADFD801ED91FC91048472
:100BE000F585E02DBE016F5F7F4FC80119956296B4
:100BF0000FB6F894DEBF0FBECDBFDF91CF911F912E
:100C00000F91FF90EF9008958CE393E072D26FE71D
:100C100072E086E393E00C94920E86E393E00C94EA
:100C20002B0E8F929F92AF92BF92EF92FF920F93F3
:100C30001F93CF93DF93EC01188219821A82442309
:100C4000B9F1E0E0F0E08B010A5F1F4F7B0189E022
:100C5000E80EF11C842E912CA12CB12CD801AE0FE2
:100C6000BF1F2C91D701AE0FBF1F6C912223E1F063
:100C70006623D1F030E040E050E02F5F3F4F4F4F10
:100C80005F4F70E080E090E06F5F7F4F8F4F9F4F2E
:100C90000E94CF109B01AC01C501B4010E94CF108E
:100CA000DE01AE0FBF1F8C933196E330F105B1F634
:100CB000CE01DF91CF911F910F91FF90EF90BF90E8
:100CC000AF909F908F900895CF92DF92EF92FF9216
:100CD000CF93DF93EC0180914103909142039C01FB
:100CE0002F5F3F4F309342032093410386179707AE
:100CF0008CF163D39B01AC01E0914103F09142037D
:100D000088EE93E0E89FB001E99F700DF89F700DA9
:100D10001124882777FD8095982FC0903D03D090AF
:100D20003E03E0903F03F09040032C193D094E092B
:100D30005F090E9405113A832983109242031092A1
:100D400041033BD360933D0370933E0380933F0385
:100D500090934003DF91CF91FF90EF90DF90CF9081
:100D600008958F929F92AF92BF92EF92FF920F934E
:100D70001F93CF93DF9300D0CDB7DEB78C01F62E53
:100D8000F80183819481A581B681892B8A2B8B2BD5
:100D9000C9F01FD38090430390904403A090450373
:100DA000B0904603681979098A099B09D8011396FE
:100DB0008D909D90AD90BC901697681579058A0529
:100DC0009B05F0F206D36093430370934403809332
:100DD000450390934603D8011B96ED91FC911C9717
:100DE000309751F0D80117964D915D916D917C919E
:100DF0001A978F2D1995F82EA0904903B0904A03A9
:100E0000A114B10449F1F501E484D80111968D9142
:100E10009C9112978436910508F41486D501ED91C2
:100E2000FC91828093804F2DB501CE010196F9DEB1
:100E3000F50145855685628173819E012F5F3F4F85
:100E4000C501F4011995D5011C96EC921C971496D6
:100E5000AD90BC901597D4CF69E170E0C80134DF44
:100E60000F900F900F90DF91CF911F910F91FF90F6
:100E7000EF90BF90AF909F908F900895CF92DF92A8
:100E8000EF92FF920F931F93CF93DF93EC014423D4
:100E9000F1F06115710581F19B0140E050E060E4E3
:100EA00072E48FE090E00E942711CB80DC80ED801F
:100EB000FE8089019A010C151D052E053F0510F4D1
:100EC000970186010B831C832D833E8315C061151A
:100ED000710571F09B0140E050E060E472E48FE046
:100EE00090E00E9427112B833C834D835E8304C0D6
:100EF0001B821C821D821E82DF91CF911F910F9158
:100F0000FF90EF90DF90CF900895CF92DF92EF9215
:100F1000FF920F931F93CF93DF93EC016B018A0134
:100F20007901121613061CF07A0100E010E0E88146
:100F3000F9810480F581E02DCE011995C801880F53
:100F4000991F800F911F8C0D9D1D9B838A83FE86A8
:100F5000ED86E881F9810284F385E02DCE011995B3
:100F600041E0BC018BE493E089DFCE01DF91CF91BA
:100F70001F910F91FF90EF90DF90CF9008958FEF2A
:100F800080934B0310924D0310924C031092570321
:100F9000109256038FEF9FEFDC01809352039093E2
:100FA0005303A0935403B09355030895FC01DB0150
:100FB000408161817281242F2F71220F220F220F15
:100FC000522F35E5539F050E50E0511D1124352F4A
:100FD000942F9074842F807247FD1FC091110AC016
:100FE000811103C03095452F11C045E5450F20E024
:100FF0003BEA2FC081110CC03AEA239F020E20E089
:10100000211D11243BEA321B4AEA450F20E021C092
:1010100080E0452F4095252F0DC0911110C0811102
:101020000BC03AEA239F020E20E0211D11244BEA57
:10103000421B2B5A30E00DC0252F209509C081118D
:1010400003C03B5A2BEA03C0365580E025E5251B3B
:1010500040E06F3F09F423C06623F1F0332321F011
:10106000369F030E30E0311D442321F0469F040ECD
:1010700040E0411D222321F0269F020E20E0211D89
:101080001124562F5095559F050E50E0511D1124E7
:10109000350F450F250F03C02FEF4FEF3FEF7F3F79
:1010A00009F420C050E0772321F0779F512D09F0FB
:1010B0005F5F5523A1F0332321F0359F030E30E00D
:1010C000311D442321F0459F040E40E0411D2223A1
:1010D00021F0259F020E20E0211D112403C020E0F5
:1010E00040E030E03C9311964C93119712962C936C
:1010F0000895CF93DF93C4E4D2E08881229661E023
:1011000077D282E0CC34D807C1F761E08091060243
:101110006FD260E080910602A4D2C6E2D2E088815C
:10112000229661E065D282E0C434D807C1F7DF912E
:10113000CF910895CF93DF936150710941305105EC
:10114000F9F054F4452B99F5EB01CC0FDD1FFE01AE
:10115000E85FFD4F60E00DC042305105F1F04330D3
:10116000510529F5EB01CC0FDD1FFE01E85FFD4FB6
:1011700062E080813DD2CA5DDD4F60E0888114C0AD
:10118000EB01CC0FDD1FFE01E85FFD4F61E08081C8
:101190002FD2CA5DDD4F61E0F1CFFB01EE0FFF1FE3
:1011A000EA5DFD4F60E08081DF91CF915AC2DF910F
:1011B000CF9108950F931F93CF93DF93EC01662394
:1011C00051F0FBD069837A838B839C83DF91CF912D
:1011D0001F910F910895F1D009811A812B813C81D3
:1011E000601B710B820B930B6132710581059105B8
:1011F00040F763E070E080E090E00ED1ECCF60E07B
:10120000D9CFFC0113AA14AA15AA16AA1182128218
:1012100013821482411551056105710519F0CB0146
:10122000BA01FAC00895FB01BA01A901DC01D29606
:10123000FC93EE93D19726E0CF0157C31F93CF9332
:10124000DF93EC01162F60E772E089A99AA9A3D475
:101250004AE050E0612F89A99AA9F7D467E772E0C4
:1012600089A99AA998D462E370E080E090E0DF91C8
:10127000CF911F91D1C01F93CF93DF93EC01162F15
:101280008D81882381F189A99AA9DC01ED91FC91D6
:101290000480F581E02D1995892BA9F307C0263725
:1012A000310511F12835310509F41D8289A99AA962
:1012B000DC01ED91FC910480F581E02D1995181663
:1012C00019068CF489A99AA9DC01ED91FC9106809C
:1012D000F781E02D19959C01332723363105F9F666
:1012E000612FCE01ABDF83E6DF91CF911F9108958F
:1012F0000F931F93CF93DF931F92CDB7DEB78C016F
:10130000662341F081E0F801858360E0C8014983EC
:10131000B2DF4981F80145830F90DF91CF911F9192
:101320000F91089508951F920F920FB60F921124F6
:101330002F933F938F939F93AF93BF93809190038D
:1013400090919103A0919203B091930330918F03F8
:1013500023E0230F2D3720F40196A11DB11D05C0F8
:1013600026E8230F0296A11DB11D20938F038093C1
:10137000900390939103A0939203B0939303809171
:10138000940390919503A0919603B09197030196D1
:10139000A11DB11D8093940390939503A093960390
:1013A000B0939703BF91AF919F918F913F912F91F0
:1013B0000F900FBE0F901F9018952FB7F894609163
:1013C00090037091910380919203909193032FBFAA
:1013D00008953FB7F8948091940390919503A0915C
:1013E0009603B091970326B5A89B05C02F3F19F02F
:1013F0000196A11DB11D3FBF6627782F892F9A2F17
:10140000620F711D811D911D42E0660F771F881FBD
:10141000991F4A95D1F708958F929F92AF92BF92EC
:10142000CF92DF92EF92FF926B017C01D2DF4B01F2
:101430005C01C114D104E104F104E1F073DFC9DF00
:10144000681979098A099B09683E734081059105ED
:1014500080F321E0C21AD108E108F10888EE880E75
:1014600083E0981EA11CB11CC114D104E104F10455
:1014700031F7DFCFFF90EF90DF90CF90BF90AF902C
:101480009F908F900895789484B5826084BD84B5D0
:10149000816084BD85B5826085BD85B5816085BD6F
:1014A000EEE6F0E0808181608083E1E8F0E0108288
:1014B000808182608083808181608083E0E8F0E0C9
:1014C000808181608083E1EBF0E0808184608083B3
:1014D000E0EBF0E0808181608083E1E9F0E08081F1
:1014E00082608083808181608083E0E9F0E0808198
:1014F00081608083E1EAF0E0808182608083808186
:1015000081608083E0EAF0E0808181608083E1E2B5
:10151000F1E0808182608083808181608083E0E26D
:10152000F1E0808181608083EAE7F0E0808184607F
:1015300080838081826080838081816080838081DC
:10154000806880831092C100089590E0FC0131977B
:10155000E231F10508F04BC0EE58FF4F94C6809180
:1015600080008F7703C0809180008F7D8093800002
:10157000089580918000877FF9CF84B58F7702C06E
:1015800084B58F7D84BD08958091B0008F7703C0AE
:101590008091B0008F7D8093B0000895809190007D
:1015A0008F7707C0809190008F7D03C0809190005D
:1015B000877F8093900008958091A0008F7707C067
:1015C0008091A0008F7D03C08091A000877F8093D1
:1015D000A0000895809120018F7707C0809120019D
:1015E0008F7D03C080912001877F80932001089523
:1015F000CF93DF9390E0FC01E459FE4F2491FC016E
:10160000EE54FE4F8491882349F190E0880F991F92
:10161000FC01EE5EFD4FA591B49188509E4FFC01F8
:10162000C591D4919FB7611108C0F8948C91209511
:1016300082238C93888182230AC0623051F4F8940B
:101640008C91322F309583238C938881822B8883D1
:1016500004C0F8948C91822B8C939FBFDF91CF9123
:1016600008950F931F93CF93DF931F92CDB7DEB7EB
:10167000282F30E0F901EA5DFE4F8491F901E45929
:10168000FE4F1491F901EE54FE4F04910023C1F076
:10169000882319F0698359DF6981E02FF0E0EE0FAC
:1016A000FF1FE850FE4FA591B4919FB7F8948C911D
:1016B000611103C01095812301C0812B8C939FBFC2
:1016C0000F90DF91CF911F910F910895FC01818DB3
:1016D000228D90E0805C9F4F821B91098F73992728
:1016E0000895FC01918D828D981731F0828DE80F5D
:1016F000F11D858D90E008958FEF9FEF0895FC0117
:10170000918D828D981761F0828DDF01A80FB11D38
:101710005D968C91928D9F5F9F73928F90E008955C
:101720008FEF9FEF089584E39DE0892B39F080E0EF
:1017300090E0892B19F098D1811125C080E090E0CC
:10174000892B41F080E090E0892B21F00E9400007D
:1017500081111CC080E090E0892B41F080E090E096
:10176000892B21F00E940000811113C080E090E0DD
:10177000892BA1F080E090E0892B81F00E9400008D
:1017800081110AC008950E940000D8CF0E94000075
:10179000E1CF0E940000EACF0C9400000895FC0104
:1017A000848DDF01A80FB11DA35ABF4F2C91848DEA
:1017B00090E001968F739927848FA689B7892C931F
:1017C000A089B1898C9180648C93938D848D9813BA
:1017D00006C00288F389E02D80818F7D8083089583
:1017E000CF93DF93EC01888D8823C1F0EA89FB89D0
:1017F000808185FD05C0A889B9898C9186FD0EC0C0
:101800000FB607FCF5CF808185FFF2CFA889B98993
:101810008C9185FFEDCFCE01C2DFE8CFDF91CF9174
:101820000895CF92DF92FF920F931F93CF93DF9390
:101830001F92CDB7DEB76C0181E0D60158968C932C
:1018400058975B969C915B975C968C915C979813EC
:1018500007C05096ED91FC915197808185FD2DC078
:10186000F601038D10E00F5F1F4F0F731127F02E4D
:10187000F601848DF81210C00FB607FCF9CFD6011F
:101880005096ED91FC915197808185FFF1CFC60173
:10189000698385DF6981ECCF838DE80FF11DE35A01
:1018A000FF4F6083D6015B960C935B975296ED9148
:1018B000FC915397808180620CC0D6015696ED91C1
:1018C000FC91579760835096ED91FC9151978081E0
:1018D0008064808381E090E00F90DF91CF911F9131
:1018E0000F91FF90DF90CF900895BF92CF92DF923B
:1018F000EF92FF92CF93DF93EC016A017B01B22E4E
:10190000E889F98982E08083411581EE58076105F5
:10191000710599F060E079E08DE390E0A701960110
:1019200074D421503109410951095695479537958D
:101930002795211580E1380790F0E889F989108210
:1019400060E874E88EE190E0A70196015ED4215032
:101950003109410951095695479537952795EC85E9
:10196000FD853083EE85FF852083188EEC89FD8907
:10197000B082EA89FB89808180618083EA89FB8962
:10198000808188608083EA89FB8980818068808388
:10199000EA89FB8980818F7D8083DF91CF91FF90E1
:1019A000EF90DF90CF90BF9008951F920F920FB6E7
:1019B0000F9211240BB60F922F938F939F93EF9357
:1019C000FF93E091A803F091A9038081E091AE0319
:1019D000F091AF0382FD12C090818091B1038F5FBF
:1019E0008F732091B203821751F0E091B103F0E0C0
:1019F000E856FC4F958F8093B10301C08081FF9121
:101A0000EF919F918F912F910F900BBE0F900FBE72
:101A10000F901F9018951F920F920FB60F921124DE
:101A20000BB60F922F933F934F935F936F937F93D8
:101A30008F939F93AF93BF93EF93FF9388E993E0C6
:101A4000AEDEFF91EF91BF91AF919F918F917F910A
:101A50006F915F914F913F912F910F900BBE0F901F
:101A60000FBE0F901F90189588E993E02FDE21E0BC
:101A7000892B09F420E0822F089510929B03109285
:101A80009A0388EE93E0A0E0B0E080939C039093EB
:101A90009D03A0939E03B0939F038CEC92E09093E0
:101AA00099038093980385EC90E09093A50380932D
:101AB000A40384EC90E09093A7038093A60380ECAA
:101AC00090E09093A9038093A80381EC90E0909319
:101AD000AB038093AA0382EC90E09093AD038093D4
:101AE000AC0386EC90E09093AF038093AE0310922A
:101AF000B1031092B2031092B3031092B40308958D
:101B00000895C1DCFDDF0E947801C3E9DBE00E949B
:101B10000C022097E1F307DEFACFCF92DF92EF922B
:101B2000FF920F931F93CF93DF937C016A01EB0128
:101B300000E010E00C151D0571F06991D701ED91E1
:101B4000FC910190F081E02DC7011995892B19F0C6
:101B50000F5F1F4FEFCFC801DF91CF911F910F9102
:101B6000FF90EF90DF90CF9008956115710581F09F
:101B7000DB010D900020E9F7AD0141505109461BF2
:101B8000570BDC01ED91FC910280F381E02D19945B
:101B900080E090E00895E9CF8F929F92AF92BF923C
:101BA000DF92EF92FF920F931F93CF93DF93CDB706
:101BB000DEB7A1970FB6F894DEBF0FBECDBF7C0194
:101BC000F42FD52ECB0119A2223008F42AE08E0181
:101BD0000F5D1F4F822E912CA12CB12C6F2F7D2DCC
:101BE000A501940112D3F22FD32ECA01015011097D
:101BF0006A3014F4E0E301C0E7E3E60FD801EC93A8
:101C0000232B242B252B51F7B801C701AEDFA1965A
:101C10000FB6F894DEBF0FBECDBFDF91CF911F91FD
:101C20000F91FF90EF90DF90BF90AF909F908F90BB
:101C300008952115310541F4DC01ED91FC910190ED
:101C4000F081E02D642F1994A7CF9A01462F50E020
:101C500060E070E0EECFFC0180819181D5C3CF932D
:101C6000DF93EC0188819981009709F0CDD3198227
:101C700018821D821C821B821A82DF91CF910895E7
:101C80000F931F93CF93DF93EC018B016F5F7F4F17
:101C90008881998148D4009731F0998388831B8388
:101CA0000A8381E001C080E0DF91CF911F910F9105
:101CB0000895CF93DF93EC0188819981892B29F0D6
:101CC0008A819B818617970758F4CE01D9DF882334
:101CD00041F08C819D81892B19F4E881F981108272
:101CE00081E0DF91CF910895EF92FF920F931F93C0
:101CF000CF93DF93EC017B018A01BA01DADF811116
:101D000003C0CE01ACDF06C01D830C83B701888100
:101D10009981F6D4CE01DF91CF911F910F91FF9061
:101D2000EF900895FC0111821082138212821582B5
:101D300014826115710551F0FB0101900020E9F753
:101D4000AF0141505109461B570BCECF0895F5D036
:101D500030F0FAD020F031F49F3F11F41EF4EAC0C5
:101D60000EF4E095E7FBE0C0E92F06D180F3BA1747
:101D7000620773078407950718F071F49EF51EC17A
:101D80000EF4E0950B2EBA2FA02D0B01B901900196
:101D90000C01CA01A0011124FF27591B99F0593FDA
:101DA00050F4503E68F11A16F040A22F232F342F22
:101DB0004427585FF3CF469537952795A795F04070
:101DC0005395C9F77EF41F16BA0B620B730B840B85
:101DD000BAF09150A1F0FF0FBB1F661F771F881F3D
:101DE000C2F70EC0BA0F621F731F841F48F4879595
:101DF00077956795B795F7959E3F08F0B3CF939584
:101E0000880F08F09927EE0F979587950895BCD015
:101E100088F09F5790F0B92F9927B751A0F0D1F0D3
:101E2000660F771F881F991F1AF0BA95C9F712C05D
:101E3000B13081F0C3D0B1E00895C0C0672F782FD2
:101E40008827B85F39F0B93FCCF3869577956795C9
:101E5000B395D9F73EF490958095709561957F4F35
:101E60008F4F9F4F0895E89409C097FB3EF49095DB
:101E70008095709561957F4F8F4F9F4F9923A9F063
:101E8000F92F96E9BB279395F695879577956795F2
:101E9000B795F111F8CFFAF4BB0F11F460FF1BC036
:101EA0006F5F7F4F8F4F9F4F16C0882311F096E9C9
:101EB00011C0772321F09EE8872F762F05C0662377
:101EC00071F096E8862F70E060E02AF09A95660F30
:101ED000771F881FDAF7880F9695879597F90895E9
:101EE000990F0008550FAA0BE0E8FEEF161617062B
:101EF000E807F907C0F012161306E407F50798F093
:101F0000621B730B840B950B39F40A2661F0232BAB
:101F1000242B252B21F408950A2609F4A140A69527
:101F20008FEF811D811D089597F99F6780E870E00C
:101F300060E008959FEF80EC089500240A9416163F
:101F4000170618060906089500240A9412161306A7
:101F5000140605060895092E0394000C11F4882335
:101F600052F0BB0F40F4BF2B11F460FF04C06F5F51
:101F70007F4F8F4F9F4F089557FD9058440F551F27
:101F800059F05F3F71F04795880F97FB991F61F0FB
:101F90009F3F79F087950895121613061406551F72
:101FA000F2CF4695F1DF08C0161617061806991FDE
:101FB000F1CF86957105610508940895E894BB27D3
:101FC00066277727CB0197F908958ADF08F48FEF0A
:101FD00008950BD0C0CFB1DF28F0B6DF18F09523FD
:101FE00009F0A2CFA7CF1124EACFC6DFA0F3959FB7
:101FF000D1F3950F50E0551F629FF001729FBB27F0
:10200000F00DB11D639FAA27F00DB11DAA1F649F9B
:102010006627B00DA11D661F829F2227B00DA11D4E
:10202000621F739FB00DA11D621F839FA00D611DD4
:10203000221F749F3327A00D611D231F849F600DF5
:10204000211D822F762F6A2F11249F5750408AF02E
:10205000E1F088234AF0EE0FFF1FBB1F661F771FBA
:10206000881F91505040A9F79E3F510570F05CCFFA
:10207000A6CF5F3FECF3983EDCF3869577956795A6
:10208000B795F795E7959F5FC1F7FE2B880F911DD8
:102090009695879597F908959F932AD00F9007FCFE
:1020A000EE5F4DC0DF93CF931F930F93FF92EF929C
:1020B000DF927B018C01689405C0DA2EEF0195DF79
:1020C000FE01E894A5912591359145915591AEF386
:1020D000EF014ADEFE019701A801DA9479F7DF905B
:1020E000EF90FF900F911F91CF91DF91089522CF34
:1020F0004BDFE8F3E894E0E0BB279F57F0F02AEDD0
:102100003FE049EC06C0EE0FBB0F661F771F881F2C
:1021100028F0B23A62077307840728F0B25A620BBC
:10212000730B840BE3959A9572F7803830F49A9587
:10213000BB0F661F771F881FD2F7904813C0EF931D
:10214000E0FF06C0A2EA2AED3FE049EC5FEB0CDEBF
:1021500002DF0F90039401FC9058E8E0F1E00EC01C
:102160009F3F31F0915020F4879577956795B7950B
:10217000880F911D9695879597F908959F938F9352
:102180007F936F93FF93EF939B01AC0122DFEF915D
:10219000FF9188DF2F913F914F915F911ACFDB0123
:1021A0008F939F937CD0BF91AF91A29F800D911D83
:1021B000A39F900DB29F900D11240895AA1BBB1BE5
:1021C00051E107C0AA1FBB1FA617B70710F0A61B37
:1021D000B70B881F991F5A95A9F780959095BC0158
:1021E000CD01089597FB072E16F4009406D077FDD5
:1021F00008D0E4DF07FC05D03EF4909581959F4F11
:102200000895709561957F4F0895A1E21A2EAA1B3B
:10221000BB1BFD010DC0AA1FBB1FEE1FFF1FA21796
:10222000B307E407F50720F0A21BB30BE40BF50B93
:10223000661F771F881F991F1A9469F7609570951C
:10224000809590959B01AC01BD01CF010895052EAD
:1022500097FB16F400940FD057FD05D0D6DF07FC8E
:1022600002D046F408C050954095309521953F4FD7
:102270004F4F5F4F089590958095709561957F4F72
:102280008F4F9F4F0895EE0FFF1F0590F491E02DA3
:10229000199413D0B7FF0895821B930B08950DD0A6
:1022A000A59F900DB49F900DA49F800D911D1124AA
:1022B00008950790F691E02D1994A29FB001B39F65
:1022C000C001A39F700D811D1124911DB29F700D3F
:1022D000811D1124911D0895CF93DF9382309105C4
:1022E00010F482E090E0E0913704F091380420E0AF
:1022F00030E0A0E0B0E0309739F1408151814817DB
:102300005907B8F04817590771F4828193811097E3
:1023100029F013969C938E9312972CC090933804B7
:102320008093370427C02115310531F04217530738
:1023300018F0A901DB0101C0EF019A01BD01DF0125
:102340000280F381E02DD7CF21153105F9F0281B4C
:10235000390B2430310580F48A819B816115710528
:1023600021F0FB019383828304C09093380480930F
:102370003704FE01329644C0FE01E20FF31F819341
:10238000919322503109398328833AC02091350432
:1023900030913604232B41F4209102023091030244
:1023A00030933604209335042091000230910102CD
:1023B0002115310541F42DB73EB7409104025091EB
:1023C0000502241B350BE0913504F0913604E21729
:1023D000F307A0F42E1B3F0B2817390778F0AC0148
:1023E0004E5F5F4F2417350748F04E0F5F1F509325
:1023F0003604409335048193919302C0E0E0F0E00D
:10240000CF01DF91CF910895CF93DF93009709F427
:1024100087C0FC01329713821282C0913704D09199
:102420003804209781F420813181280F391F809151
:102430003504909136048217930779F5F0933604AA
:10244000E09335046DC0DE0120E030E0AE17BF0739
:1024500050F412964D915C9113979D0141155105D1
:1024600009F1DA01F3CFB383A28340815181840F54
:10247000951F8A179B0771F48D919C911197840F7A
:10248000951F02969183808312968D919C9113974C
:10249000938382832115310529F4F0933804E09366
:1024A00037043EC0D9011396FC93EE9312974D91D9
:1024B0005D91A40FB51FEA17FB0779F48081918124
:1024C000840F951F0296D90111969C938E93828159
:1024D000938113969C938E931297E0E0F0E08A81AB
:1024E0009B81009719F0FE01EC01F9CFCE01029615
:1024F00028813981820F931F209135043091360451
:102500002817390769F4309729F41092380410928B
:10251000370402C013821282D0933604C09335046C
:10252000DF91CF9108956F927F928F929F92AF9299
:10253000BF92CF92DF92EF92FF920F931F93CF93B0
:10254000DF93EC01CB01209779F4DF91CF911F91BC
:102550000F91FF90EF90DF90CF90BF90AF909F9042
:102560008F907F906F90B8CEFE01E60FF71F9E010F
:1025700022503109E217F30708F4A8C0D9010D91E0
:102580001C91119706171707B0F00530110508F4D4
:102590009BC0A801445051094617570708F494C03E
:1025A00002501109061B170B019311936D937C9335
:1025B000CF012ADF89C05B01A01AB10A4E01800E4B
:1025C000911EA0913704B0913804612C712C60E009
:1025D00070E0109709F449C0A815B905C9F5ED9048
:1025E000FC901197670142E0C40ED11CCA14DB04B1
:1025F00078F147018A189B08640142E0C40ED11C9F
:102600001296BC9012971396AC91B5E0CB16D104FC
:1026100040F0B282A38391828082D9018D939C93F2
:1026200009C00E5F1F4F0E0D1F1DF901118300839E
:10263000EB2DFA2F6115710531F0DB011396FC9338
:10264000EE93129741C0F0933804E09337043CC0F6
:102650006D917C9111976616770608F43B01BD01D8
:1026600012960D90BC91A02DB4CF6091350470915D
:10267000360468157905E9F468167906D0F44091B6
:102680000002509101024115510541F44DB75EB76A
:102690006091040270910502461B570BE417F50781
:1026A000A8F4F0933604E0933504F9019183808314
:1026B0000BC012DE7C01009749F0A801BE0117D0C3
:1026C000CE01A2DEC70104C0CE0102C080E090E0CE
:1026D000DF91CF911F910F91FF90EF90DF90CF90FE
:1026E000BF90AF909F908F907F906F900895FB0167
:1026F000DC0102C001900D9241505040D8F708957E
:10270000FB01DC0101900D920020E1F7089512E039
:10271000C2E3D2E000E005C022970109FE010BBF31
:10272000C8DDC433D10780E00807B1F7F894FFCFC4
:1027300000003904800008004200430044003F00CC
:10274000400041003C003D003E0039003A003B00A3
:10275000360037003800230024002500260027001B
:10276000280029002A002B003000310032003300FD
:10277000340035000200040006000700564D4450A6
:10278000565F317C315F564D4450560D0A000000B3
:1027900000007105BA05760150014C017301B504C2
:1027A000564D4450435F005F564D4450430D0A0060
:1027B0004572726F723A20417474656D7074207442
:1027C0006F20736574206120726561642D6F6E6C7B
:1027D00079207661726961626C65206F7220646134
:1027E00074612074797065206E6F742073757070D9
:1027F0006F727465640D0A0000000000110C8D0DED
:08280000660B7F0B710BF00B5E
:00000001FF
